:020000040800F2
:1000000000500020311200082511000831110008AD
:10001000371100083D1100084311000800000000DE
:10002000000000000000000000000000491100086E
:100030005511000800000000611100086D11000852
:100040007912000879120008791200087912000864
:100050007912000879120008791200087912000854
:100060007912000879120008791200087912000844
:100070007912000879120008791200087912000834
:100080007912000879120008791100087912000825
:100090008D11000879120008791200087912000801
:1000A0007912000879120008791200087912000804
:1000B00079120008A1110008B51100087912000892
:1000C00079120008791200087912000879120008E4
:1000D00079120008791200087912000879120008D4
:1000E0007912000879120008791200080000000057
:1000F0000000000000000000000000000000000000
:0C01000000000000000000005FF808F1A3
:10010C0010B5054C237833B9044B13B10448AFF345
:10011C0000800123237010BD80010020000000002E
:10012C001880000808B5034B1BB103490348AFF313
:10013C00008008BD00000000840100201880000829
:10014C00034613F8012B002AFBD1181A013870470B
:10015C0080B500AF00220221044802F01CF80122F5
:10016C000221024802F017F800BF80BD00080140D0
:10017C0080B586B000AF78600B467B807B88B3F58A
:10018C00805F02D340F6FF737B800023FB82012348
:10019C00BB8200237B8200233B82FB8ADB031AB2E7
:1001AC00BB8A9B031BB213431AB27B8A5B031BB241
:1001BC0013431AB23B8A1B031BB213431BB2FB81C2
:1001CC00B7F90E3023F47F6323F00F031AB2B7F99B
:1001DC000230C3F30B031BB213431BB29BB2BB81A4
:1001EC00002210210A4801F0D6FF07F10C0101236F
:1001FC000122786803F0B7FC01221021044801F0B9
:10020C00CAFFFFF7A5FF00BF1837BD4680BD00BF72
:10021C000008014080B586B000AF78600B467B804B
:10022C007B88B3F5805F02D340F6FF737B8001239C
:10023C00FB820123BB8200237B8200233B82FB8A4F
:10024C00DB031AB2BB8A9B031BB213431AB27B8A21
:10025C005B031BB213431AB23B8A1B031BB213433F
:10026C001BB2FB81B7F90E3023F47F6323F00F032D
:10027C001AB2B7F90230C3F30B031BB213431BB210
:10028C009BB2BB81002210210A4801F084FF07F1C8
:10029C000C0101230122786803F065FC0122102176
:1002AC00044801F078FFFFF753FF00BF1837BD4635
:1002BC0080BD00BF0008014080B400AF074BDB6875
:1002CC00064A43F08073D360054B1B68044A43F025
:1002DC000103136000BFBD4680BC7047F0ED00E029
:1002EC00001000E080B582B000AF0346FB80064AE8
:1002FC00FB881380044B1B8819460448FFF738FF12
:10030C0000BF0837BD4680BD00000020D00400208F
:10031C0080B582B000AF0346FB80064AFB88138091
:10032C00044B1B8819460448FFF774FF00BF0837BD
:10033C00BD4680BD02000020D004002080B400AF78
:10034C00024B1B881846BD4680BC7047000000203D
:10035C0080B400AF024B1B881846BD4680BC70476A
:10036C000200002080B400AF1D4B1B78002B0BD17A
:10037C001C4B1B78002B07D11A4B00221A70184B00
:10038C0000221A70002326E0154B1B78012B0BD191
:10039C00144B1B78002B07D1124B00221A70104BF8
:1003AC0000221A70012316E00D4B1B78002B0BD189
:1003BC000C4B1B78012B07D10A4B00221A70084BEF
:1003CC0000221A70022306E0064B00221A70044B1E
:1003DC0000221A7000231846BD4680BC704700BF2F
:1003EC00A5010020A401002080B400AF1D4B1B7898
:1003FC00002B0BD11C4B1B78002B07D11A4B002266
:10040C001A70184B00221A70002326E0154B1B782B
:10041C00012B0BD1144B1B78002B07D1124B002254
:10042C001A70104B00221A70012316E00D4B1B782A
:10043C00002B0BD10C4B1B78012B07D10A4B002244
:10044C001A70084B00221A70022306E0064B002299
:10045C001A70044B00221A7000231846BD4680BC4B
:10046C00704700BFAD010020AC01002080B400AF8C
:10047C001D4B1B78002B0BD11C4B1B78002B07D171
:10048C001A4B00221A70184B00221A70002326E017
:10049C00154B1B78012B0BD1144B1B78002B07D160
:1004AC00124B00221A70104B00221A70012316E016
:1004BC000D4B1B78002B0BD10C4B1B78012B07D150
:1004CC000A4B00221A70084B00221A70022306E015
:1004DC00064B00221A70044B00221A700023184697
:1004EC00BD4680BC704700BFB5010020B4010020A0
:1004FC0080B400AF034B01221A7000BFBD4680BC14
:10050C00704700BFB601002080B400AF034B00223F
:10051C001A7000BFBD4680BC704700BFB6010020FA
:10052C0080B400AF034B1B889BB21846BD4680BC01
:10053C00704700BFB801002080B400AF034B00220D
:10054C001A8000BFBD4680BC704700BFB8010020B8
:10055C0080B400AF034B1B889BB21846BD4680BCD1
:10056C00704700BFBA01002080B400AF034B0022DB
:10057C001A8000BFBD4680BC704700BFBA01002086
:10058C0080B400AF034B1B889BB21846BD4680BCA1
:10059C00704700BF9C01002080B582B000AF78602E
:1005AC007B681B68064A934206D1064801F072F834
:1005BC0003469AB2044B1A8000BF0837BD4680BD73
:1005CC0000240140A00400209C01002080B586B0CE
:1005DC0000AF78602A4B1B78DBB2002B26D07B68EF
:1005EC001B68284A934247D17B681B7F012B43D160
:1005FC000021254803F0AAFE03463B820421224831
:10060C0003F0A4FE0346FB811E4B00225A623A8A79
:10061C00FB89D31A9BB2BB81B7F90C30002BB8BF46
:10062C005B42BB81BA89194B1A8025E07B681B6839
:10063C00174A934220D17B681B7F012B1CD10021D0
:10064C00144803F083FE0346FB820421114803F097
:10065C007DFE0346BB820E4B00225A62FA8ABB8A8D
:10066C00D31A9BB27B82B7F91230002BB8BF5B4216
:10067C007B827A8A084B1A8000BF1837BD4680BD32
:10068C00B60100200004004060040020B8010020E6
:10069C0000080040E0030020BA01002080B582B0C1
:1006AC0000AF00F0E5FDFFF707FE00F04FF900F09A
:1006BC000FFB00F0E7F906F077FE00F0A5F900F06B
:1006CC0019FA00F079FA00F0D9FA8A4801F03EFAEA
:1006DC00884800F029FF0021874803F02BFC0421F7
:1006EC00854803F027FC0021844803F023FC0421F7
:1006FC00824803F01FFC824B1B8819468148FFF788
:10070C0037FD814B1B8819467E48FFF783FDFA2085
:10071C0000F010FE00F004FE78604FF480517B482E
:10072C0001F022FD0346FB70FB78002B13D1784BB4
:10073C001B78002B0FD1774B1B687A68D31A322B9E
:10074C0009D9734B01221A70734B00221A70714A2B
:10075C007B6813602EE0FB78002B11D16E4B1B785D
:10076C00002B0DD16B4B1B687A68D31AB3F57A7FCB
:10077C0006D9694B01221A70684B01221A7019E0D4
:10078C00FB78012B16D1624B1B78002B12D0614BDE
:10079C001B687A68D31A322B0CD95D4B00221A7065
:1007AC005C4A7B6813605C4B1B78002B02D15C4B62
:1007BC0001221A704FF40051544801F0D5FC034645
:1007CC00BB70BB78002B13D1564B1B78002B0FD171
:1007DC00554B1B687A68D31A322B09D9514B01221D
:1007EC001A70524B00221A704F4A7B6813602EE02D
:1007FC00BB78002B11D14D4B1B78002B0DD14A4BE4
:10080C001B687A68D31AB3F57A7F06D9474B012255
:10081C001A70474B01221A7019E0BB78012B16D1C4
:10082C00404B1B78002B12D03F4B1B687A68D31AB5
:10083C00322B0CD93B4B00221A703B4A7B6813605D
:10084C003A4B1B78002B02D13A4B01221A704FF411
:10085C0080412E4801F088FC03467B707B78002B8E
:10086C0013D1354B1B78002B0FD1344B1B687A6896
:10087C00D31A322B09D9304B01221A70304B00227B
:10088C001A702E4A7B68136032E07B78002B11D1F2
:10089C002B4B1B78002B0DD1284B1B687A68D31A75
:1008AC00B3F57A7F06D9264B01221A70254B01220B
:1008BC001A701DE07B78012B7FF41DAF1E4B1B784B
:1008CC00002B3FF418AF1D4B1B687A68D31A322BE0
:1008DC007FF611AF184B00221A70184A7B68136010
:1008EC00174B1B78002B7FF406AF174B01221A70A5
:1008FC0001E700BFA004002060040020E0030020FA
:10090C0000000020D004002002000020000C014058
:10091C009E010020A00100209F010020A4010020C6
:10092C00A5010020A6010020A8010020A70100209D
:10093C00AC010020AD010020AE010020B001002070
:10094C00AF010020B4010020B501002080B594B0A7
:10095C0000AF07F1280328220021184607F04DFBB1
:10096C0007F1140300221A605A609A60DA601A6167
:10097C003B1D00221A605A609A60DA600123BB6248
:10098C004FF48033FB6200233B630123BB630223E0
:10099C007B644FF48033BB644FF4E013FB6407F1CA
:1009AC002803184602F0F0FA0346002B01D000F0A1
:1009BC001FFA0F237B610223BB610023FB614FF401
:1009CC0080633B6200237B6207F11403022118460B
:1009DC0002F05AFD0346002B01D000F009FA122355
:1009EC007B604FF40043FB6000233B613B1D1846CA
:1009FC0002F0E6FE0346002B01D000F0F9F900BF2F
:100A0C005037BD4680BD000080B584B000AF3B1DA3
:100A1C0000221A605A609A60184B194A1A60174BD8
:100A2C0000229A60154B01221A73144B00221A757E
:100A3C00124B4FF46022DA61104B00225A600F4BBC
:100A4C0001221A610D4800F097FC0346002B01D0DF
:100A5C0000F0CEF903237B600123BB600223FB6013
:100A6C003B1D1946054800F0EDFE0346002B01D056
:100A7C0000F0BEF900BF1037BD4680BDA0040020B9
:100A8C000024014080B500AF184B194A1A60174B6F
:100A9C004FF482725A60154B00229A60134B4FF43C
:100AAC000062DA60114B00221A61104B00225A616D
:100ABC000E4B4FF400729A610C4B0822DA610B4B0F
:100ACC0000221A62094B00225A62084B00229A62D9
:100ADC00064B0A22DA62054802F0E4FF0346002BBB
:100AEC0001D000F085F900BF80BD00BFD00400200C
:100AFC000030014080B586B000AF07F11003002232
:100B0C001A605A603B4600221A605A609A60DA609A
:100B1C00274B284A1A60264B47225A60244B002246
:100B2C009A60234B4FF6E752DA60214B00221A6190
:100B3C001F4B00229A611E4803F0D1F90346002B8B
:100B4C0001D000F055F900233B6100237B6107F1D4
:100B5C0010031946164803F0F4FD0346002B01D090
:100B6C0000F046F900233B6001237B600023BB604F
:100B7C000023FB603B46002219460D4803F04AFB5C
:100B8C000346002B01D000F033F902233B60022313
:100B9C007B603B4604221946054803F03BFB0346A9
:100BAC00002B01D000F024F900BF1837BD4680BDE2
:100BBC00600400200004004080B586B000AF07F14F
:100BCC00100300221A605A603B4600221A605A60D9
:100BDC009A60DA60274B284A1A60264B47225A60E3
:100BEC00244B00229A60234B4FF6E752DA60214BDC
:100BFC0000221A611F4B00229A611E4803F06FF904
:100C0C000346002B01D000F0F3F800233B610023D6
:100C1C007B6107F110031946164803F092FD034659
:100C2C00002B01D000F0E4F800233B6001237B6033
:100C3C000023BB600023FB603B46002219460D4895
:100C4C0003F0E8FA0346002B01D000F0D1F80223A0
:100C5C003B6002237B603B4604221946054803F0A7
:100C6C00D9FA0346002B01D000F0C2F800BF1837A8
:100C7C00BD4680BDE00300200008004080B500AFF9
:100C8C00114B124A1A60104B4FF416525A600E4B0D
:100C9C0000229A600C4B0022DA600B4B00221A6186
:100CAC00094B0C225A61084B00229A61064B002218
:100CBC00DA61054803F09BFD0346002B01D000F0E0
:100CCC0097F800BF80BD00BF200400200048004002
:100CDC0080B588B000AF07F1100300221A605A608B
:100CEC009A60DA603E4B9B693D4A43F01003936176
:100CFC003B4B9B6903F01003FB60FB68384B9B6913
:100D0C00374A43F020039361354B9B6903F0200372
:100D1C00BB60BB68324B9B69314A43F0040393615F
:100D2C002F4B9B6903F004037B607B682C4B9B6906
:100D3C002B4A43F008039361294B9B6903F008038A
:100D4C003B603B6800224FF40051264801F023FA27
:100D5C00002240F21241244801F01DFA0122042124
:100D6C00214801F018FA4FF400533B6101237B61D9
:100D7C000023BB610223FB6107F1100319461948DC
:100D8C0001F098F840F216433B6101237B6100238C
:100D9C00BB610223FB6107F110031946124801F0F5
:100DAC0089F84FF480533B6100237B610123BB61C5
:100DBC0007F1100319460D4801F07CF84FF4C043BD
:100DCC003B6100237B610023BB6107F110031946D3
:100DDC00064801F06FF800BF2037BD4680BD00BF4C
:100DEC00001002400010014000080140000C0140BE
:100DFC0080B400AF00BFBD4680BC704780B485B0E6
:100E0C0000AF154B9B69144A43F001039361124BDD
:100E1C009B6903F00103BB60BB680F4BDB690E4A97
:100E2C0043F08053D3610C4BDB6903F080537B6040
:100E3C007B680A4B5B68FB60FB6823F0E063FB603C
:100E4C00FB6843F00073FB60044AFB68536000BF0F
:100E5C001437BD4680BC70470010024000000140B2
:100E6C0080B588B000AF786007F1100300221A60DB
:100E7C005A609A60DA607B681B68184A934229D1E1
:100E8C00174B9B69164A43F400739361144B9B698F
:100E9C0003F40073FB60FB68114B9B69104A43F031
:100EAC00040393610E4B9B6903F00403BB60BB68A6
:100EBC0008233B6103237B6107F1100319460948A2
:100ECC0000F0F8FF00220021122000F0BCFF1220DD
:100EDC0000F0D5FF00BF2037BD4680BD0024014087
:100EEC00001002400008014080B588B000AF786067
:100EFC0007F1100300221A605A609A60DA607B686E
:100F0C001B68154A934223D1144B9B69134A43F433
:100F1C0080539361114B9B6903F48053FB60FB6816
:100F2C000E4B9B690D4A43F0040393610B4B9B6979
:100F3C0003F00403BB60BB68A0233B6102237B610D
:100F4C000323FB6107F110031946054800F0B2FFBB
:100F5C0000BF2037BD4680BD00300140001002406C
:100F6C000008014080B58CB000AF786007F11C031D
:100F7C0000221A605A609A60DA607B681B683B4AF0
:100F8C0093423ED13A4BDB69394A43F00203D361B9
:100F9C00374BDB6903F00203BB61BB69344B9B69C4
:100FAC00334A43F008039361314B9B6903F0080308
:100FBC007B617B691023FB6100233B6200237B6216
:100FCC0007F11C0319462B4800F074FF2A4B5B6891
:100FDC00FB62FB6A23F44063FB62FB6A43F0E06351
:100FEC00FB62FB6A43F40063FB62234AFB6A5360B7
:100FFC00002200211D2000F026FF1D2000F03FFFE5
:10100C0030E07B681B681D4A93422BD1184BDB697F
:10101C00174A43F00403D361154BDB6903F0040357
:10102C003B613B69124B9B69114A43F00803936186
:10103C000F4B9B6903F00803FB60FB684023FB61CB
:10104C0000233B6200237B6207F11C03194609480D
:10105C0000F030FF002200211E2000F0F4FE1E20C4
:10106C0000F00DFF00BF3037BD4680BD00040040CE
:10107C0000100240000C014000000140000800403C
:10108C0080B588B000AF786007F1100300221A60B9
:10109C005A609A60DA607B681B681C4A934231D1B3
:1010AC001B4BDB691A4A43F48023D361184BDB6971
:1010BC0003F48023FB60FB68154B9B69144A43F0D7
:1010CC0008039361124B9B6903F00803BB60BB6878
:1010DC004FF480633B6102237B610323FB6107F1C7
:1010EC00100319460B4800F0E5FE4FF400633B611A
:1010FC0000237B610023BB6107F1100319460548EF
:10110C0000F0D8FE00BF2037BD4680BD004800402F
:10111C0000100240000C014080B400AF00BFBD467F
:10112C0080BC704780B400AFFEE780B400AFFEE730
:10113C0080B400AFFEE780B400AFFEE780B400AF30
:10114C0000BFBD4680BC704780B400AF00BFBD4639
:10115C0080BC704780B400AF00BFBD4680BC7047F8
:10116C0080B500AF00F0CAF800BF80BD80B500AFFD
:10117C00024800F09BFA00BF80BD00BFA004002015
:10118C0080B500AF024801F025F900BF80BD00BF5B
:10119C00F00D002080B500AF024802F033FF00BF15
:1011AC0080BD00BF6004002080B500AF024802F093
:1011BC0029FF00BF80BD00BFE003002080B400AF5A
:1011CC00154B1B68144A43F001031360124B5A6809
:1011DC001149124B13404B600F4B1B680E4A23F006
:1011EC00847323F4803313600B4B1B680A4A23F47B
:1011FC0080231360084B5B68074A23F4FE0353609B
:10120C00054B4FF41F029A60054B4FF000629A6039
:10121C0000BFBD4680BC7047001002400000FFF8C4
:10122C0000ED00E0002103E00B4B5B584350043110
:10123C000A480B4B42189A42F6D30A4A02E00023A2
:10124C0042F8043B084B9A42F9D3FFF7B7FF06F07C
:10125C00A5FEFFF723FA7047CC80000800000020A1
:10126C0080010020800100205C100020FEE70000BF
:10127C0080B500AF084B1B68074A43F0100313609E
:10128C00032000F0D5FD002000F008F8FFF7B6FDB4
:10129C000023184680BD00BF0020024080B582B0FC
:1012AC0000AF7860124B1A68124B1B7819464FF43A
:1012BC007A73B3FBF1F3B2FBF3F3184600F0EDFDD8
:1012CC000346002B01D001230EE07B680F2B0AD8BC
:1012DC00002279684FF0FF3000F0B5FD064A7B68BC
:1012EC001360002300E0012318460837BD4680BD7B
:1012FC00040000200C0000200800002080B400AF87
:10130C00054B1B781A46054B1B681344034A1360A4
:10131C0000BFBD4680BC70470C0000202805002093
:10132C0080B400AF024B1B681846BD4680BC7047AA
:10133C002805002080B584B000AF7860FFF7F0FF7F
:10134C00B8607B68FB60FB68B3F1FF3F05D0094BCD
:10135C001B781A46FB681344FB6000BFFFF7E0FFE5
:10136C000246BB68D31AFA689A42F7D800BF103706
:10137C00BD4680BD0C00002080B586B000AF786003
:10138C000023FB7500233B610023BB600023FB6043
:10139C007B68002B01D10123BEE07B689B68002B8E
:1013AC007B689B6A002B09D17B680022DA627B6820
:1013BC00002283F824207868FFF752FD786800F04B
:1013CC008BFB0346FB757B689B6A03F01003002BB9
:1013DC0040F09980FB7D002B40F095807B689B6AE8
:1013EC0023F4885323F0020343F002027B689A62D1
:1013FC007B685A687B68DB691A437B681B7B5B00E4
:10140C001343BA681343BB607B689B68B3F5807F5A
:10141C0003D07B689B68012B02D14FF4807300E0F2
:10142C0000233A6913433B617B681B7D012B19D167
:10143C007B681B7B002B09D17B689B69013B5A03A2
:10144C003B69134343F400633B610BE07B689B6A8D
:10145C0043F020027B689A627B68DB6A43F00102EE
:10146C007B68DA627B681B685B6823F469417B6884
:10147C001B683A690A435A607B681B689A68284B58
:10148C0013407A681268B9680B4393607B689B6859
:10149C00B3F5807F03D07B689B68012B04D17B68FC
:1014AC001B69013B1B05FB607B681B68DB6A23F433
:1014BC0070017B681B68FA680A43DA627B681B68F8
:1014CC009A68184B1340BA689A420BD17B68002279
:1014DC00DA627B689B6A23F0030343F001027B68AA
:1014EC009A6218E07B689B6A23F0120343F01002A7
:1014FC007B689A627B68DB6A43F001027B68DA6284
:10150C000123FB7507E07B689B6A43F010027B6844
:10151C009A620123FB75FB7D18461837BD4680BDCA
:10152C00FDF7E1FFFE0E1FFF80B584B000AF7860C1
:10153C000023FB737B6893F82430012B01D1022329
:10154C00A0E07B68012283F82420786800F072FA0E
:10155C000346FB73FB7B002B40F08F807B689B6A00
:10156C0023F4706323F0010343F480727B689A6266
:10157C007B681B68454A934205D1454B5B6803F475
:10158C007023002B15D17B689B6A23F480127B6837
:10159C009A627B681B685B6803F48063002B26D01F
:1015AC007B689B6A23F4405343F480527B689A62B5
:1015BC001DE07B689B6A43F480127B689A627B68AF
:1015CC001B68334A934204D07B681B682F4A9342B2
:1015DC000DD12F4B5B6803F48063002B07D07B6825
:1015EC009B6A23F4405343F480527B689A627B6875
:1015FC009B6A03F48053002B06D07B68DB6A23F0D4
:10160C0006027B68DA6202E07B680022DA627B68A1
:10161C00002283F824207B681B686FF002021A609A
:10162C007B681B685A687B681B6842F020025A6012
:10163C007B681B689B6803F46023B3F5602F13D1A0
:10164C007B681B68114A934205D1114B5B6803F40C
:10165C007023002B08D17B681B689A687B681B6819
:10166C0042F4A0029A600CE07B681B689A687B6865
:10167C001B6842F480129A6003E07B68002283F8B6
:10168C002420FB7B18461037BD4680BD0028014046
:10169C000024014080B483B000AF78607B681B6885
:1016AC00DB6C18460C37BD4680BC704780B582B0E9
:1016BC0000AF78607B681B685B6803F02003202B0D
:1016CC0040D17B681B681B6803F00203022B39D1E5
:1016DC007B689B6A03F01003002B05D17B689B6A27
:1016EC0043F400727B689A627B681B689B6803F406
:1016FC006023B3F5602F1DD17B681B7B002B19D1A8
:10170C007B681B685A687B681B6822F020025A6051
:10171C007B689B6A23F480727B689A627B689B6A05
:10172C0003F48053002B05D17B689B6A43F00102C4
:10173C007B689A627868FEF72FFF7B681B686FF0F6
:10174C0012021A607B681B685B6803F08003802BB5
:10175C004FD17B681B681B6803F00403042B48D132
:10176C007B689B6A03F01003002B05D17B689B6A96
:10177C0043F400527B689A627B681B689B6803F495
:10178C00E043B3F5E04F12D07B681B685B6803F451
:10179C008063002B25D17B681B689B6803F4602356
:1017AC00B3F5602F1DD17B681B7B002B19D17B6897
:1017BC001B685A687B681B6822F080025A607B6841
:1017CC009B6A23F480527B689A627B689B6A03F461
:1017DC008073002B05D17B689B6A43F001027B6808
:1017EC009A62786800F04EFA7B681B686FF00C0206
:1017FC001A607B681B685B6803F04003402B14D1B4
:10180C007B681B681B6803F00103012B0DD17B68FF
:10181C009B6A43F480327B689A62786800F009F81E
:10182C007B681B686FF001021A6000BF0837BD4669
:10183C0080BD80B483B000AF786000BF0C37BD466C
:10184C0080BC704780B485B000AF786039600023ED
:10185C00FB730023BB607B6893F82430012B01D110
:10186C000223DCE07B68012283F824203B685B6860
:10187C00062B1CD87B681B68596B3B685A6813464F
:10188C009B001344053B1F2202FA03F3DB43194070
:10189C003B6818683B685A6813469B001344053B29
:1018AC0000FA03F27B681B680A435A633CE03B680E
:1018BC005B680C2B1CD87B681B68196B3B685A68DF
:1018CC0013469B001344233B1F2202FA03F3DB4312
:1018DC0019403B6818683B685A6813469B001344D0
:1018EC00233B00FA03F27B681B680A431A631BE074
:1018FC007B681B68D96A3B685A6813469B00134483
:10190C00413B1F2202FA03F3DB4319403B68186882
:10191C003B685A6813469B001344413B00FA03F2A0
:10192C007B681B680A43DA623B681B68092B1CD96D
:10193C007B681B68D9683B681A6813465B001344C4
:10194C001E3B072202FA03F3DB4319403B689868FD
:10195C003B681A6813465B0013441E3B00FA03F203
:10196C007B681B680A43DA6019E07B681B6819699D
:10197C003B681A6813465B001344072202FA03F310
:10198C00DB4319403B6898683B681A6813465B0058
:10199C00134400FA03F27B681B680A431A613B6824
:1019AC001B68102B03D03B681B68112B32D17B6852
:1019BC001B681D4A934225D17B681B689B6803F406
:1019CC000003002B26D17B681B689A687B681B6818
:1019DC0042F400029A603B681B68102B1AD1134B1F
:1019EC001B68134AA2FB03239A0C13469B00134457
:1019FC005B00BB6002E0BB68013BBB60BB68002BBB
:101A0C00F9D107E07B689B6A43F020027B689A62FD
:101A1C000123FB737B68002283F82420FB7B184690
:101A2C001437BD4680BC70470024014004000020E0
:101A3C0083DE1B4380B584B000AF78600023FB606D
:101A4C000023BB607B681B689B6803F00103012BC0
:101A5C0039D07B681B689A687B681B6842F001026E
:101A6C009A601B4B1B681B4AA2FB03239B0CBB609D
:101A7C0002E0BB68013BBB60BB68002BF9D1FFF7F0
:101A8C004FFCF86018E0FFF74BFC0246FB68D31ADA
:101A9C00022B11D97B689B6A43F010027B689A6217
:101AAC007B68DB6A43F001027B68DA627B680022A8
:101ABC0083F82420012307E07B681B689B6803F0F4
:101ACC000103012BDFD1002318461037BD4680BD22
:101ADC000400002083DE1B4380B584B000AF786027
:101AEC000023FB607B681B689B6803F00103012BE0
:101AFC0027D17B681B689A687B681B6822F00102FF
:101B0C009A60FFF70DFCF86014E0FFF709FC024641
:101B1C00FB68D31A022B0DD97B689B6A43F0100229
:101B2C007B689A627B68DB6A43F001027B68DA624D
:101B3C00012307E07B681B689B6803F00103012B02
:101B4C00E3D0002318461037BD4680BD90B587B052
:101B5C0000AF78600023FB750023FB607B6893F873
:101B6C002430012B01D1022386E07B68012283F80B
:101B7C0024207868FFF7B0FF0346FB75FB7D002B34
:101B8C0075D17B689B6A23F4885323F0020343F0DE
:101B9C0002027B689A623A4B1C68022001F0C6FE76
:101BAC000346B4FBF3F35B00FB6002E0FB68013B14
:101BBC00FB60FB68002BF9D17868FFF73BFF7B6873
:101BCC001B689A687B681B6842F008029A60FFF7F2
:101BDC00A7FB386114E0FFF7A3FB02463B69D31A5D
:101BEC000A2B0DD97B689B6A23F0120343F0100279
:101BFC007B689A627B68002283F8242001233BE0F7
:101C0C007B681B689B6803F00803002BE3D17B689F
:101C1C001B689A687B681B6842F004029A60FFF7A5
:101C2C007FFB386114E0FFF77BFB02463B69D31A5C
:101C3C000A2B0DD97B689B6A23F0120343F0100228
:101C4C007B689A627B68002283F82420012313E0CE
:101C5C007B681B689B6803F00403002BE3D17B6853
:101C6C009B6A23F0030343F001027B689A627B6852
:101C7C00002283F82420FB7D18461C37BD4690BDFE
:101C8C000400002080B483B000AF786000BF0C3734
:101C9C00BD4680BC7047000080B485B000AF786052
:101CAC007B6803F00703FB600C4BDB68BB60BA6816
:101CBC004FF6FF031340BB60FB681A02BB6813436B
:101CCC0043F0BF6343F40033BB60044ABB68D3608A
:101CDC0000BF1437BD4680BC704700BF00ED00E06C
:101CEC0080B400AF044BDB681B0A03F007031846F3
:101CFC00BD4680BC704700BF00ED00E080B483B0EF
:101D0C0000AF0346FB7197F90730002B0BDBFB7917
:101D1C0003F01F02064997F907305B09012000FA0E
:101D2C0002F241F8232000BF0C37BD4680BC70473F
:101D3C0000E100E080B483B000AF03463960FB7172
:101D4C0097F90730002B0ADB3B68DAB20C4997F99C
:101D5C0007301201D2B20B4483F800230AE03B682F
:101D6C00DAB20849FB7903F00F03043B1201D2B23B
:101D7C000B441A7600BF0C37BD4680BC704700BFC1
:101D8C0000E100E000ED00E080B489B000AFF86045
:101D9C00B9607A60FB6803F00703FB61FB69C3F170
:101DAC000703042B28BF0423BB61FB690433062BF8
:101DBC0002D9FB69033B00E000237B614FF0FF324B
:101DCC00BB6902FA03F3DA43BB681A407B699A4099
:101DDC004FF0FF317B6901FA03F3D9437B680B4069
:101DEC00134318462437BD4680BC704780B582B07B
:101DFC0000AF78607B68013BB3F1807F01D3012396
:101E0C000FE00A4A7B68013B53600F214FF0FF3013
:101E1C00FFF790FF054B00229A60044B07221A60D3
:101E2C00002318460837BD4680BD00BF10E000E017
:101E3C0080B582B000AF78607868FFF72DFF00BFE7
:101E4C000837BD4680BD80B586B000AF0346B9608B
:101E5C007A60FB7300237B61FFF742FF78617A683D
:101E6C00B9687869FFF790FF024697F90F30114671
:101E7C001846FFF75FFF00BF1837BD4680BD80B521
:101E8C0082B000AF0346FB7197F907301846FFF795
:101E9C0035FF00BF0837BD4680BD80B582B000AFAE
:101EAC0078607868FFF7A2FF034618460837BD46EE
:101EBC0080BD000080B48BB000AF78603960002327
:101ECC007B6200233B6227E101227B6A02FA03F367
:101EDC00FB613B681B68FA691340BB61BA69FB691B
:101EEC009A4240F016813B685B68122B34D0122B5F
:101EFC000DD8022B2BD0022B04D8002B31D0012B68
:101F0C001CD048E0032B43D0112B1BD043E0894A53
:101F1C00934226D0874A934206D8874A934220D0D0
:101F2C00864A93421DD036E0854A934219D0854AA1
:101F3C00934216D0844A934213D02CE03B68DB6862
:101F4C003B6228E03B68DB6804333B6223E03B6880
:101F5C00DB6808333B621EE03B68DB680C333B629A
:101F6C0019E03B689B68002B02D104233B6212E012
:101F7C003B689B68012B05D108233B627B68FA699F
:101F8C001A6108E008233B627B68FA695A6102E037
:101F9C0000233B6200BFBB69FF2B01D87B6801E0CB
:101FAC007B6804337B61BB69FF2B02D87B6A9B0087
:101FBC0002E07B6A083B9B003B617B691A680F213E
:101FCC003B6901FA03F3DB431A40396A3B6901FAB6
:101FDC0003F31A437B691A603B685B6803F0805318
:101FEC00002B00F09680594B9B69584A43F0010333
:101FFC009361564B9B6903F00103BB60BB68544A69
:10200C007B6A9B08023352F82330FB607B6A03F037
:10201C0003039B000F2202FA03F3DB43FA6813401D
:10202C00FB607B684B4A934213D07B684A4A9342CD
:10203C000DD07B68494A934207D07B68484A93424B
:10204C0001D1032306E0042304E0022302E0012370
:10205C0000E000237A6A02F0030292009340FA68CF
:10206C001343FB603A497B6A9B080233FA6841F8D8
:10207C0023203B685B6803F48033002B06D0394B7C
:10208C001A683849BB6913430B6006E0354B1A6874
:10209C00BB69DB43334913400B603B685B6803F45B
:1020AC000033002B06D02F4B5A682E49BB691343C3
:1020BC004B6006E02B4B5A68BB69DB432949134044
:1020CC004B603B685B6803F48013002B06D0254BF8
:1020DC009A682449BB6913438B6006E0214B9A68CC
:1020EC00BB69DB431F4913408B603B685B6803F49F
:1020FC000013002B06D01B4BDA681A49BB6913433B
:10210C00CB6006E0174BDA68BB69DB43154913401B
:10211C00CB607B6A01337B623B681A687B6A22FA6C
:10212C0003F3002B7FF4D0AE00BF2C37BD4680BC30
:10213C00704700BF000021100000111000001210A9
:10214C00000031100000321000002210001002407C
:10215C000000014000080140000C0140001001404B
:10216C00001401400004014080B485B000AF7860D9
:10217C000B467B807B689A687B881340002B02D0CF
:10218C000123FB7301E00023FB73FB7B1846143720
:10219C00BD4680BC704780B483B000AF78600B46FE
:1021AC007B8013467B707B78002B03D07A887B680E
:1021BC001A6103E07B881A047B681A6100BF0C3734
:1021CC00BD4680BC7047F0B58BB006AF78607B68BD
:1021DC00002B01D10123D3E07B6893F82932DBB2C9
:1021EC00002B06D17B68002283F82822786805F042
:1021FC0037FC7B68032283F829227B681B6818460E
:10220C0002F043FC7B681B683B607E686D4606F100
:10221C0010040FCC0FC523682B60331D0ECB386810
:10222C0002F00CFC0346002B05D07B68022283F8DD
:10223C0029220123A4E07B681B680021184602F0C8
:10224C0040FC0023FB7335E0FB7B7A685B01134495
:10225C00293301221A70FB7B7A685B011344283303
:10226C00FA7B1A70FB7BFA7B91B27A685B011344A0
:10227C0036330A461A80FB7B7A685B0113442B3396
:10228C0000221A70FB7B7A685B01134438330022FE
:10229C001A60FB7B7A685B0113443C3300221A60A2
:1022AC00FB7B7A6802335B01134400221A60FB7BD0
:1022BC000133FB73FA7B7B685B689A42C4D30023BF
:1022CC00FB7331E0FB7B7A685B01134403F2291347
:1022DC0000221A70FB7B7A685B01134403F594733C
:1022EC00FA7B1A70FB7B7A685B01134403F22B13A5
:1022FC0000221A70FB7B7A685B01134403F59C7314
:10230C0000221A60FB7B7A685B01134403F59E7311
:10231C0000221A60FB7B7A680A335B0113440022AB
:10232C001A60FB7B0133FB73FA7B7B685B689A4218
:10233C00C8D37B681B683B607E686D4606F1100451
:10234C000FCC0FC523682B60331D0ECB386802F001
:10235C00C4FB0346002B05D07B68022283F829229C
:10236C0001230DE07B68002283F824207B68012286
:10237C0083F829227B681B68184603F002FC0023B3
:10238C0018461437BD46F0BD80B582B000AF7860FA
:10239C007B6893F82832012B01D1022316E07B686D
:1023AC00012283F828220121786805F0C0FD7B68A2
:1023BC001B68184603F0DBFB7B681B68184602F0B1
:1023CC004DFB7B68002283F828220023184608372F
:1023DC00BD4680BD80B582B000AF78607B681B685D
:1023EC00184603F0D8FB034603F40043B3F5004F43
:1023FC0002D1786800F0F2FA7B681B68184603F08B
:10240C00CAFB034603F48063B3F5806F12D17B687B
:10241C001B68B3F844309AB27B681B6822F4806264
:10242C0092B2A3F84420786805F08FFB00217868FD
:10243C0000F0DEF87B681B68184603F0ACFB034623
:10244C0003F48043B3F5804F0BD17B681B68B3F862
:10245C0044309AB27B681B6822F4804292B2A3F893
:10246C0044207B681B68184603F095FB034603F475
:10247C000053B3F5005F0BD17B681B68B3F8443095
:10248C009AB27B681B6822F4005292B2A3F84420E3
:10249C007B681B68184603F07EFB034603F48053ED
:1024AC00B3F5805F26D17B681B68B3F840309AB2D5
:1024BC007B681B6822F0040292B2A3F840207B6870
:1024CC001B68B3F840309AB27B681B6822F0080294
:1024DC0092B2A3F84020786805F070FB7B681B680B
:1024EC00B3F844309AB27B681B6822F4805292B2E3
:1024FC00A3F844207B681B68184603F04CFB03468A
:10250C0003F40063B3F5006F3DD17B681B68B3F82F
:10251C0040309AB27B681B6842F0080292B2A3F872
:10252C0040207B681B68B3F844309AB27B681B6808
:10253C0022F4006292B2A3F844207B681B68B3F8C3
:10254C0040309AB27B681B6842F0040292B2A3F846
:10255C0040207B681B68184603F01DFB034603F400
:10256C008053B3F5805F0BD17B681B68B3F84430A4
:10257C009AB27B681B6822F4805292B2A3F8442072
:10258C00786805F001FB7B681B68184603F003FBB9
:10259C00034603F40073B3F5007F0ED17B681B6810
:1025AC00B3F844309AB27B681B6822F4007292B282
:1025BC00A3F84420786805F0BAFA7B681B681846C3
:1025CC0003F0E9FA034603F48073B3F5807F0BD173
:1025DC007B681B68B3F844309AB27B681B6822F4A2
:1025EC00807292B2A3F8442000BF0837BD4680BD6C
:1025FC0080B582B000AF78600B46FB707B6893F8B7
:10260C002832012B01D1022313E07B68012283F8CD
:10261C0028227B68FA7883F824207B681B68FA7878
:10262C001146184603F090FA7B68002283F82822A2
:10263C00002318460837BD4680BD80B584B000AF76
:10264C007860084611461A460346FB700B463B80E1
:10265C001346BB700023FB7297F90330002B0BDA87
:10266C00FB7803F007035B0128337A681344FB60A3
:10267C00FB6801225A700BE0FB7803F007035B0147
:10268C0003F594737A681344FB60FB6800225A705C
:10269C00FB7803F00703DAB2FB681A703A88FB6820
:1026AC001A61FB68BA78DA70FB685B78002B04D08F
:1026BC00FB681B789AB2FB68DA81BB78022B02D1DB
:1026CC00FB6800221A717B6893F82832012B01D128
:1026DC0002230EE07B68012283F828227B681B68AA
:1026EC00F968184602F01EFA7B68002283F828224B
:1026FC00FB7A18461037BD4680BD80B584B000AF5C
:10270C0078600B46FB7097F90330002B0BDAFB78E3
:10271C0003F007035B0128337A681344FB60FB6802
:10272C0001225A700BE0FB7803F007035B0103F501
:10273C0094737A681344FB60FB6800225A70FB7830
:10274C0003F00703DAB2FB681A707B6893F828323F
:10275C00012B01D102230EE07B68012283F8282291
:10276C007B681B68F968184602F0CAFC7B6800227B
:10277C0083F82822002318461037BD4680BD80B54B
:10278C0086B000AFF8607A603B600B46FB72FB7A58
:10279C0003F007035B0103F59473FA6813447B6140
:1027AC007B697A685A617B693A689A617B69002215
:1027BC00DA617B6900225A70FB7A03F00703DAB204
:1027CC007B691A70FB7A03F00703002B06D1FB68B8
:1027DC001B687969184602F029FE05E0FB681B6846
:1027EC007969184602F022FE002318461837BD46B8
:1027FC0080BD80B483B000AF78600B46FB70FB7873
:10280C0003F007037A680A335B01134404331B6833
:10281C0018460C37BD4680BC704780B586B000AFFB
:10282C00F8607A603B600B46FB72FB7A03F007039F
:10283C005B012833FA6813447B617B697A685A61BF
:10284C007B693A689A617B690022DA617B690122B3
:10285C005A70FB7A03F00703DAB27B691A70FB7AC1
:10286C0003F00703002B06D1FB681B687969184637
:10287C0002F0DCFD05E0FB681B687969184602F084
:10288C00D5FD002318461837BD4680BD80B584B0F1
:10289C0000AF78600B46FB70FB7803F007027B6897
:1028AC005B689A4201D9012346E097F90330002B6B
:1028BC000BDAFB7803F007035B0128337A681344C7
:1028CC00FB60FB6801225A7009E0FB785B0103F5A1
:1028DC0094737A681344FB60FB6800225A70FB689F
:1028EC0001229A70FB7803F00703DAB2FB681A70C6
:1028FC007B6893F82832012B01D102231CE07B6802
:10290C00012283F828227B681B68F968184603F0BB
:10291C0045F8FB7803F00703002B08D17B681A6895
:10292C007B6803F50C731946104603F043F97B687A
:10293C00002283F82822002318461037BD4680BD9C
:10294C0080B584B000AF78600B46FB70FB7803F069
:10295C000F027B685B689A4201D901233AE097F930
:10296C000330002B0BDAFB7803F007035B012833F1
:10297C007A681344FB60FB6801225A700BE0FB7809
:10298C0003F007035B0103F594737A681344FB604F
:10299C00FB6800225A70FB6800229A70FB7803F0E7
:1029AC000703DAB2FB681A707B6893F82832012BA4
:1029BC0001D102230EE07B68012283F828227B6878
:1029CC001B68F968184603F02BF87B68002283F823
:1029DC002822002318461037BD4680BD90B589B01B
:1029EC0000AF786082E27B681B68B3F84430FB82EE
:1029FC00FB8ADBB203F00F037B757B7D002B40F071
:102A0C004281FB8A03F01003002B51D17B681B68B9
:102A1C001B889BB223F4E14323F070039CB27B68C8
:102A2C001A686FEA44436FEA53439BB213807B6886
:102A3C002833FB607B681B68B3F850309BB21A4696
:102A4C00FB681B78DB00134402335B007A68126866
:102A5C00134403F580631B88C3F30902FB68DA6136
:102A6C00FB685A69FB68DB691A44FB685A610021F0
:102A7C00786805F045F87B6893F82430DBB2002BBE
:102A8C0000F03482FB689B69002B40F02F827B683E
:102A9C0093F82430DBB263F07F03DAB27B681B68F7
:102AAC0092B2A3F84C207B68002283F824201DE20C
:102ABC007B6803F59473FB607B681B681B887B82C7
:102ACC007B8A03F40063002B33D07B681B68B3F85C
:102ADC0050309BB21A46FB681B78DB00134406335C
:102AEC005B007A681268134403F580631B88C3F398
:102AFC000902FB68DA617B6818687B6803F50C7166
:102B0C00FB68DA88FB68DB699BB203F0A2F87B6890
:102B1C001B681B889AB240F68F7313409CB27B687B
:102B2C001B6844F0800292B21A80786804F0BEFFF1
:102B3C00DCE1B7F91230002B80F2D8817B681B687E
:102B4C001B889AB240F68F7313409CB27B681B684B
:102B5C0044F0800292B21A807B681B68B3F8503044
:102B6C009BB21A46FB681B78DB00134406335B00F0
:102B7C007A681268134403F580631B88C3F3090257
:102B8C00FB68DA61FB68DB69002B19D0FB685B69B9
:102B9C00002B15D07B681868FB685969FB68DA88CC
:102BAC00FB68DB699BB203F054F8FB685A69FB685D
:102BBC00DB691A44FB685A610021786804F088FFCD
:102BCC007B681B681C467B681B68B3F850309BB253
:102BDC001C4404F20C431C46FB681B69002B0ED1F1
:102BEC0023889BB223F4F8439BB2238023889BB2A7
:102BFC006FEA43436FEA53439BB223802DE0FB689B
:102C0C001B693E2B12D8FB681B695B08BB61FB6818
:102C1C001B6903F00103002B02D0BB690133BB61BC
:102C2C00BB699BB29B029BB2238016E0FB681B69BD
:102C3C005B09BB61FB681B6903F01F03002B02D10E
:102C4C00BB69013BBB61BB699BB29B029BB26FEA48
:102C5C0043436FEA53439BB223807B681B681B88FA
:102C6C009BB223F4804323F070039CB284F4805312
:102C7C009CB284F400539CB27B681A68A24B234329
:102C8C009BB2138032E17B681B681A467B7D9B00EC
:102C9C0013441B887B82B7F91230002B80F2D18051
:102CAC007B681B681A467B7D9B0013441B889AB279
:102CBC0040F68F7313409CB27B681B681A467B7D71
:102CCC009B00134444F0800292B21A807B7D5B011E
:102CDC0003F594737A681344FB60FB681B7B002B31
:102CEC0021D17B681B68B3F850309BB21A46FB6845
:102CFC001B78DB00134406335B007A6812681344BC
:102D0C0003F580631B88C3F30903FB83FB8B002B48
:102D1C0072D07B681868FB685969FB68DA88FB8B92
:102D2C0002F097FF68E07B681B681A46FB681B780B
:102D3C009B0013441B889BB203F48043002B21D0CF
:102D4C007B681B68B3F850309BB21A46FB681B7843
:102D5C00DB00134402335B007A681268134403F5FA
:102D6C0080631B88C3F30903FB83FB8B002B2AD0E6
:102D7C007B681868FB685969FB681A89FB8B02F041
:102D8C0068FF20E07B681B68B3F850309BB21A4692
:102D9C00FB681B78DB00134406335B007A6812680F
:102DAC00134403F580631B88C3F30903FB83FB8B7C
:102DBC00002B08D07B681868FB685969FB685A8936
:102DCC00FB8B02F046FF7B681B681A46FB681B787E
:102DDC009B0013441B889BB223F4E04323F0700345
:102DEC009CB27B681B681A46FB681B789B001A44D4
:102DFC00464B23439BB21380FB68DA69FB8B1A4466
:102E0C00FB68DA61FB685A69FB8B1A44FB685A61F0
:102E1C00FB689B69002B04D0FA8BFB681B699A42F8
:102E2C0006D2FB681B781946786804F051FE08E05E
:102E3C00FB681978FB685A69FB689B697868FFF72F
:102E4C009EFC7B8A03F08003002B4FD07B7D5B01C3
:102E5C0028337A681344FB607B681B681A467B7DB9
:102E6C009B0013441B889BB223F4E14323F07003B3
:102E7C009CB27B681B681A467B7D9B001A446FEAE8
:102E8C0044436FEA53439BB213807B681B68B3F8CF
:102E9C0050309BB21A46FB681B78DB00134402339C
:102EAC005B007A681268134403F580631B88C3F3D4
:102EBC000902FB68DA61FB685A69FB68DB691A4432
:102ECC00FB685A61FB689B69002B06D1FB681B7879
:102EDC001946786804F014FE08E0FB681978FB6862
:102EEC005A69FB689B697868FFF797FC7B681B68DD
:102EFC00B3F844309BB21BB2002BFFF674AD002329
:102F0C0018462437BD4690BD8080FFFFC080FFFF70
:102F1C0080B487B000AFF8607B600B467B811346B2
:102F2C003B817B8903F080039BB2002B08D07B890B
:102F3C0003F007035B012833FA6813447B6106E056
:102F4C007B895B0103F59473FA6813447B613B89BD
:102F5C00002B07D17B6900221A737B689AB27B69BC
:102F6C00DA800BE07B6901221A737B689AB27B6969
:102F7C001A817B681B0C9AB27B695A810023184614
:102F8C001C37BD4680BC704780B586B000AF7860FA
:102F9C007B68002B01D101236CE27B681B6803F07A
:102FAC000103002B00F08780924B5B6803F00C034D
:102FBC00042B0CD08F4B5B6803F00C03082B12D145
:102FCC008C4B5B6803F48033B3F5803F0BD1894B9A
:102FDC001B6803F40033002B6CD07B685B68002B00
:102FEC0068D1012346E27B685B68B3F5803F06D16C
:102FFC00804B1B687F4A43F4803313602EE07B6860
:10300C005B68002B0CD17B4B1B687A4A23F4803312
:10301C001360784B1B68774A23F4802313601DE000
:10302C007B685B68B3F5A02F0CD1724B1B68714A9F
:10303C0043F4802313606F4B1B686E4A43F4803358
:10304C0013600BE06B4B1B686A4A23F480331360EC
:10305C00684B1B68674A23F4802313607B685B68AA
:10306C00002B13D0FEF75CF9386108E0FEF758F935
:10307C0002463B69D31A642B01D90323FAE15D4B59
:10308C001B6803F40033002BF0D014E0FEF748F972
:10309C00386108E0FEF744F902463B69D31A642B09
:1030AC0001D90323E6E1534B1B6803F40033002BD7
:1030BC00F0D100E000BF7B681B6803F00203002B1B
:1030CC0063D04C4B5B6803F00C03002B0BD0494BCB
:1030DC005B6803F00C03082B1CD1464B5B6803F4B4
:1030EC008033002B16D1434B1B6803F00203002BDB
:1030FC0005D07B681B69012B01D00123BAE13D4B44
:10310C001B6823F0F8027B685B69DB0039491343C9
:10311C000B603AE07B681B69002B20D0364B0122F8
:10312C001A60FEF7FDF8386108E0FEF7F9F8024680
:10313C003B69D31A022B01D903239BE12D4B1B684E
:10314C0003F00203002BF0D02A4B1B6823F0F8028B
:10315C007B685B69DB00274913430B6015E0264B4A
:10316C0000221A60FEF7DCF8386108E0FEF7D8F8A8
:10317C0002463B69D31A022B01D903237AE11D4B7A
:10318C001B6803F00203002BF0D17B681B6803F073
:10319C000803002B3AD07B689B69002B19D0174B86
:1031AC0001221A60FEF7BCF8386108E0FEF7B8F8A7
:1031BC0002463B69D31A022B01D903235AE10D4B6A
:1031CC005B6A03F00203002BF0D0012000F0DAFA66
:1031DC001CE00A4B00221A60FEF7A2F838610FE0DF
:1031EC00FEF79EF802463B69D31A022B08D903233B
:1031FC0040E100BF00100240000042428004424205
:10320C009E4B5B6A03F00203002BE9D17B681B68C1
:10321C0003F00403002B00F0A6800023FB75974BF2
:10322C00DB6903F08053002B0DD1944BDB69934A7F
:10323C0043F08053D361914BDB6903F08053BB6047
:10324C00BB680123FB758E4B1B6803F48073002B4A
:10325C0018D18B4B1B688A4A43F480731360FEF7BA
:10326C005FF8386108E0FEF75BF802463B69D31A59
:10327C00642B01D90323FDE0814B1B6803F480739D
:10328C00002BF0D07B68DB68012B06D17B4B1B6AD3
:10329C007A4A43F0010313622DE07B68DB68002B54
:1032AC000CD1764B1B6A754A23F001031362734BE6
:1032BC001B6A724A23F0040313621CE07B68DB6810
:1032CC00052B0CD16D4B1B6A6C4A43F00403136243
:1032DC006A4B1B6A694A43F0010313620BE0674BAC
:1032EC001B6A664A23F001031362644B1B6A634A30
:1032FC0023F0040313627B68DB68002B15D0FEF708
:10330C000FF838610AE0FEF70BF802463B69D31A56
:10331C0041F28832934201D90323ABE0574B1B6A2D
:10332C0003F00203002BEED014E0FDF7F9FF386137
:10333C000AE0FDF7F5FF02463B69D31A41F28832E9
:10334C00934201D9032395E04C4B1B6A03F0020313
:10335C00002BEED1FB7D012B05D1484BDB69474A95
:10336C0023F08053D3617B68DB69002B00F08180F4
:10337C00424B5B6803F00C03082B61D07B68DB6964
:10338C00022B46D13F4B00221A60FDF7C9FF386172
:10339C0008E0FDF7C5FF02463B69D31A022B01D9A1
:1033AC00032367E0354B1B6803F00073002BF0D14F
:1033BC007B681B6AB3F5803F08D1304B5B6823F404
:1033CC0000327B689B682D4913434B602B4B5B6829
:1033DC0023F474127B68196A7B685B6A0B43274978
:1033EC0013434B60274B01221A60FDF799FF38619C
:1033FC0008E0FDF795FF02463B69D31A022B01D971
:10340C00032337E01D4B1B6803F00073002BF0D037
:10341C002FE01C4B00221A60FDF782FF386108E098
:10342C00FDF77EFF02463B69D31A022B01D9032319
:10343C0020E0124B1B6803F00073002BF0D118E056
:10344C007B68DB69012B01D1012313E00B4B5B681B
:10345C00FB60FB6803F480327B681B6A9A4206D1DE
:10346C00FB6803F470127B685B6A9A4201D00123FB
:10347C0000E0002318461837BD4680BD00100240FE
:10348C00007000406000424280B584B000AF7860AC
:10349C0039607B68002B01D10123D0E06A4B1B689B
:1034AC0003F007033A689A4210D9674B1B6823F064
:1034BC00070265493B6813430B60634B1B6803F0C1
:1034CC0007033A689A4201D00123B8E07B681B6875
:1034DC0003F00203002B20D07B681B6803F004036D
:1034EC00002B05D0594B5B68584A43F4E06353609A
:1034FC007B681B6803F00803002B05D0534B5B68FB
:10350C00524A43F460535360504B5B6823F0F00213
:10351C007B689B684D4913434B607B681B6803F0C9
:10352C000103002B40D07B685B68012B07D1474B14
:10353C001B6803F40033002B15D101237FE07B685B
:10354C005B68022B07D1414B1B6803F00073002B07
:10355C0009D1012373E03D4B1B6803F00203002BE0
:10356C0001D101236BE0394B5B6823F003027B68CC
:10357C005B68364913434B60FDF7D2FEF8600AE0F6
:10358C00FDF7CEFE0246FB68D31A41F28832934215
:10359C0001D9032353E02D4B5B6803F00C027B68CD
:1035AC005B689B009A42EBD1274B1B6803F0070327
:1035BC003A689A4210D2244B1B6823F00702224926
:1035CC003B6813430B60204B1B6803F007033A68FE
:1035DC009A4201D0012332E07B681B6803F004039C
:1035EC00002B08D0194B5B6823F4E0627B68DB6826
:1035FC00164913434B607B681B6803F00803002BD0
:10360C0009D0124B5B6823F460527B681B69DB00AA
:10361C000E4913434B6000F021F801460B4B5B68DD
:10362C001B0903F00F030A4AD35C21FA03F3094A7E
:10363C001360094B1B681846FDF730FE0023184633
:10364C001037BD4680BD00BF002002400010024074
:10365C00AC800008040000200800002090B48AB060
:10366C0000AF2A4B3C1D0FCB84E80F00284B1B8866
:10367C003B800023FB610023BB6100237B620023A2
:10368C007B6100233B62234B5B68FB61FB6903F0AE
:10369C000C03042B02D0082B03D02DE01E4B3B62F5
:1036AC002DE0FB699B0C03F00F0307F12802134478
:1036BC0013F8243C7B61FB6903F48033002B13D09B
:1036CC00144B5B685B0C03F0010307F128021344F5
:1036DC0013F8283CBB617B690F4A02FB03F2BB6900
:1036EC00B2FBF3F37B6204E07B690C4A02FB03F34D
:1036FC007B627B6A3B6202E0074B3B6200BF3B6A2A
:10370C0018462837BD4690BC704700BF3080000873
:10371C00408000080010024000127A0000093D00B1
:10372C0080B400AF024B1B681846BD4680BC704786
:10373C000400002080B500AFFFF7F2FF0146054BF7
:10374C005B681B0A03F00703034AD35C21FA03F3FB
:10375C00184680BD00100240BC80000880B500AF48
:10376C00FFF7DEFF0146054B5B68DB0A03F007033E
:10377C00034AD35C21FA03F3184680BD00100240C3
:10378C00BC80000880B485B000AF78600A4B1B6821
:10379C000A4AA2FB03235B0A7A6802FB03F3FB6071
:1037AC0000BFFB685A1EFA60002BF9D100BF14371A
:1037BC00BD4680BC704700BF04000020D34D621092
:1037CC0080B586B000AF786000233B610023FB60BE
:1037DC007B681B6803F00103002B7DD00023FB7575
:1037EC004F4BDB6903F08053002B0DD14C4BDB6945
:1037FC004B4A43F08053D361494BDB6903F0805350
:10380C00BB60BB680123FB75464B1B6803F48073DC
:10381C00002B18D1434B1B68424A43F4807313604E
:10382C00FDF77EFD386108E0FDF77AFD02463B6945
:10383C00D31A642B01D903236DE03A4B1B6803F4B4
:10384C008073002BF0D0364B1B6A03F44073FB6083
:10385C00FB68002B2ED07B685B6803F44073FA681E
:10386C009A4227D02E4B1B6A23F44073FB602E4BDD
:10387C0001221A602C4B00221A60294AFB68136241
:10388C00FB6803F00103002B14D0FDF749FD3861F0
:10389C000AE0FDF745FD02463B69D31A41F2883236
:1038AC00934201D9032336E01D4B1B6A03F002033C
:1038BC00002BEED01A4B1B6A23F440727B685B68BA
:1038CC00174913430B62FB7D012B05D1144BDB69AC
:1038DC00134A23F08053D3617B681B6803F0020307
:1038EC00002B08D00E4B5B6823F440427B689B682E
:1038FC000B4913434B607B681B6803F01003002BD0
:10390C0008D0074B5B6823F480027B68DB680449B2
:10391C0013434B60002318461837BD4680BD00BFCB
:10392C0000100240007000404004424290B58DB03F
:10393C0000AF7860554B07F10C040FCB84E80F00F7
:10394C00534B1B883B8100237B620023FB620023CB
:10395C003B620023FB610023BB627B68022B7FD0A0
:10396C00102B02D0012B48D08BE04A4B5B68FB61DB
:10397C00484B1B6803F08073002B7FD0FB699B0CBA
:10398C0003F00F0307F13002134413F8243C3B629D
:10399C00FB6903F48033002B18D03E4B5B685B0C47
:1039AC0003F0010307F13002134413F8283C7B6247
:1039BC00FB6903F48033002B0DD0374A7B6AB2FBD2
:1039CC00F3F23B6A02FB03F3FB6204E03B6A334A0B
:1039DC0002FB03F3FB622F4B5B6803F48003B3F52C
:1039EC00800F02D1FB6ABB6248E0FB6A5B002C4A89
:1039FC00A2FB03235B08BB6240E0264B1B6AFB6106
:103A0C00FB6903F44073B3F5807F08D1FB6903F0C5
:103A1C000203002B03D04FF40043BB621FE0FB6991
:103A2C0003F44073B3F5007F09D11A4B5B6A03F0C2
:103A3C000203002B03D049F64043BB620FE0FB6945
:103A4C0003F44073B3F5407F1AD1124B1B6803F497
:103A5C000033002B14D04FF22443BB6210E00FE074
:103A6C00FFF77CFE02460B4B5B689B0B03F00303DA
:103A7C0001335B00B2FBF3F3BB6202E000BF00E07A
:103A8C0000BFBB6A18463437BD4690BD4480000861
:103A9C00548000080010024000127A0000093D001A
:103AAC00ABAAAAAA80B582B000AF78607B68002B65
:103ABC0001D1012353E07B6800229A627B6893F862
:103ACC005130DBB2002B06D17B68002283F85020EA
:103ADC007868FDF709FA7B68022283F851207B682D
:103AEC001B681A687B681B6822F040021A607B68AE
:103AFC005A687B689B681A437B68DB681A437B684F
:103B0C001B691A437B685B691A437B689B6903F4E6
:103B1C0000731A437B68DB691A437B681B6A42EAB1
:103B2C0003017B689A6A7B681B680A431A607B688E
:103B3C009B691A0C7B681B6802F004025A607B6854
:103B4C001B68DA697B681B6822F40062DA617B68A7
:103B5C0000225A657B68012283F851200023184605
:103B6C000837BD4680BD80B588B000AFF860B9603D
:103B7C003B601346FB800023FB77FB6893F85030C7
:103B8C00012B01D102231EE1FB68012283F8502096
:103B9C00FDF7C6FBB861FB88FB82FB6893F85130DC
:103BAC00DBB2012B02D00223FB7703E1BB68002BB5
:103BBC0002D0FB88002B02D10123FB77FAE0FB68D3
:103BCC00032283F85120FB6800225A65FB68BA680F
:103BDC001A63FB68FA889A86FB68FA88DA86FB68AF
:103BEC0000229A63FB6800229A87FB680022DA871E
:103BFC00FB6800225A64FB6800221A64FB689B680D
:103C0C00B3F5004F07D1FB681B681A68FB681B688B
:103C1C0042F480421A60FB681B681B6803F0400387
:103C2C00402B07D0FB681B681A68FB681B6842F0C6
:103C3C0040021A60FB68DB68B3F5006F4BD1FB6880
:103C4C005B68002B02D0FB8A012B3ED1FB681B6BFF
:103C5C001A88FB681B68DA60FB681B6B9A1CFB6894
:103C6C001A63FB68DB8E9BB2013B9AB2FB68DA8667
:103C7C002BE0FB681B689B6803F00203022B12D13C
:103C8C00FB681B6B1A88FB681B68DA60FB681B6B94
:103C9C009A1CFB681A63FB68DB8E9BB2013B9AB2E1
:103CAC00FB68DA8611E0FDF73BFB0246BB69D31AD1
:103CBC003A689A4203D83B68B3F1FF3F02D13B68A4
:103CCC00002B02D10323FB7774E0FB68DB8E9BB2E5
:103CDC00002BCED14CE0FB685B68002B02D0FB8A3A
:103CEC00012B40D1FB681A6BFB681B680C331278F4
:103CFC001A70FB681B6B5A1CFB681A63FB68DB8E23
:103D0C009BB2013B9AB2FB68DA862CE0FB681B681D
:103D1C009B6803F00203022B13D1FB681A6BFB6840
:103D2C001B680C3312781A70FB681B6B5A1CFB68EF
:103D3C001A63FB68DB8E9BB2013B9AB2FB68DA8696
:103D4C0011E0FDF7EDFA0246BB69D31A3A689A42C4
:103D5C0003D83B68B3F1FF3F02D13B68002B02D183
:103D6C000323FB7726E0FB68DB8E9BB2002BCDD1C7
:103D7C00BA693968F86800F094F80346002B02D051
:103D8C00FB6820225A65FB689B68002B0AD1002334
:103D9C003B61FB681B68DB683B61FB681B689B68CD
:103DAC003B613B69FB685B6D002B02D00123FB7709
:103DBC0000E000BFFB68012283F85120FB68002261
:103DCC0083F85020FB7F18462037BD4680BD80B558
:103DDC0084B000AFF860B9603B601346FB714CE0F7
:103DEC003B68B3F1FF3F48D0FDF79AFA0246BB6936
:103DFC00D31A3A689A4202D93B68002B3DD1FB6832
:103E0C001B685A68FB681B6822F0E0025A60FB686A
:103E1C005B68B3F5827F11D1FB689B68B3F5004FEB
:103E2C0004D0FB689B68B3F5806F07D1FB681B68F7
:103E3C001A68FB681B6822F040021A60FB689B6AD8
:103E4C00B3F5005F0FD1FB681B681A68FB681B6831
:103E5C0022F400521A60FB681B681A68FB681B6826
:103E6C0042F400521A60FB68012283F85120FB686F
:103E7C00002283F8502003230FE0FB681B689A682C
:103E8C00BB681340BA689A420CBF01230023DBB213
:103E9C001A46FB799A42A3D1002318461037BD4627
:103EAC0080BD80B586B002AFF860B9607A607B687F
:103EBC000093BB6800228021F868FFF788FF034657
:103ECC00002B07D0FB685B6D43F02002FB685A6542
:103EDC00032300E0002318461037BD4680BD80B593
:103EEC0082B000AF78607B68002B01D101231DE00C
:103EFC007B6893F83D30DBB2002B06D17B68002247
:103F0C0083F83C207868FDF72DF87B68022283F853
:103F1C003D207B681A687B6804331946104600F014
:103F2C007DFA7B68012283F83D2000231846083770
:103F3C00BD4680BD80B584B000AF786039603B6809
:103F4C000C2B41D801A252F823F000BF8D3F000882
:103F5C00D53F0008D53F0008D53F00089F3F00081B
:103F6C00D53F0008D53F0008D53F0008B13F0008F9
:103F7C00D53F0008D53F0008D53F0008C33F0008D7
:103F8C007B681B68DA687B681B6842F00202DA60A7
:103F9C001BE07B681B68DA687B681B6842F00402D4
:103FAC00DA6012E07B681B68DA687B681B6842F099
:103FBC000802DA6009E07B681B68DA687B681B68BA
:103FCC0042F01002DA6000E000BF7B681B6801223F
:103FDC003968184600F091FB7B681B689B6803F0FE
:103FEC000703FB60FB68062B07D07B681B681A680D
:103FFC007B681B6842F001021A60002318461037D8
:10400C00BD4680BD80B582B000AF78607B681B6810
:10401C001B6903F00203022B22D17B681B68DB684F
:10402C0003F00203022B1BD17B681B686FF00202AA
:10403C001A617B6801221A777B681B689B6903F005
:10404C000303002B03D07868FCF7C0FA05E078680E
:10405C0000F0C9F9786800F0CFF97B6800221A7774
:10406C007B681B681B6903F00403042B22D17B685B
:10407C001B68DB6803F00403042B1BD17B681B68F3
:10408C006FF004021A617B6802221A777B681B6846
:10409C009B6903F44073002B03D07868FCF796FA05
:1040AC0005E0786800F09FF9786800F0A5F97B6866
:1040BC0000221A777B681B681B6903F00803082B26
:1040CC0022D17B681B68DB6803F00803082B1BD12B
:1040DC007B681B686FF008021A617B6804221A77F0
:1040EC007B681B68DB6903F00303002B03D0786843
:1040FC00FCF76CFA05E0786800F075F9786800F068
:10410C007BF97B6800221A777B681B681B6903F0BC
:10411C001003102B22D17B681B68DB6803F01003A3
:10412C00102B1BD17B681B686FF010021A617B6827
:10413C0008221A777B681B68DB6903F44073002B39
:10414C0003D07868FCF742FA05E0786800F04BF988
:10415C00786800F051F97B6800221A777B681B683D
:10416C001B6903F00103012B0ED17B681B68DB6814
:10417C0003F00103012B07D17B681B686FF0010270
:10418C001A61786800F026F97B681B681B6903F0DC
:10419C008003802B0ED17B681B68DB6803F08003E7
:1041AC00802B07D17B681B686FF080021A617868DE
:1041BC0000F014FB7B681B681B6903F04003402B69
:1041CC000ED17B681B68DB6803F04003402B07D1E2
:1041DC007B681B686FF040021A61786800F015F973
:1041EC007B681B681B6903F02003202B0ED17B68B6
:1041FC001B68DB6803F02003202B07D17B681B684E
:10420C006FF020021A61786800F0DFFA00BF0837FF
:10421C00BD4680BD80B584B000AFF860B9607A60EF
:10422C00FB6893F83C30012B01D102238AE0FB6838
:10423C00012283F83C20FB68022283F83D207B6836
:10424C00002B1BD1FB681868BB681968BB685A68DF
:10425C00BB68DB6800F044F9FB681B689A69FB6873
:10426C001B6822F00C029A61FB681B689969BB6899
:10427C009A68FB681B680A439A615AE07B68042BB6
:10428C001CD1FB681868BB681968BB685A68BB68A6
:10429C00DB6800F07FF9FB681B689A69FB681B6898
:1042AC0022F440629A61FB681B689969BB689B6841
:1042BC001A02FB681B680A439A613AE07B68082B78
:1042CC001BD1FB681868BB681968BB685A68BB6867
:1042DC00DB6800F09BF9FB681B68DA69FB681B68FC
:1042EC0022F00C02DA61FB681B68D969BB689A681A
:1042FC00FB681B680A43DA611BE0FB681868BB6843
:10430C001968BB685A68BB68DB6800F0BAF9FB68CF
:10431C001B68DA69FB681B6822F44062DA61FB688F
:10432C001B68D969BB689B681A02FB681B680A4347
:10433C00DA61FB68012283F83D20FB68002283F8D8
:10434C003C20002318461037BD4680BD80B485B094
:10435C0000AF786039600023FB603B680C2B31D8D0
:10436C0001A252F823F000BFA9430008D143000872
:10437C00D1430008D1430008B3430008D1430008DF
:10438C00D1430008D1430008BD430008D1430008C5
:10439C00D1430008D1430008C74300087B681B6861
:1043AC005B6BFB600FE07B681B689B6BFB600AE040
:1043BC007B681B68DB6BFB6005E07B681B681B6C18
:1043CC00FB6000E000BFFB6818461437BD4680BC9C
:1043DC00704700BF80B483B000AF786000BF0C376B
:1043EC00BD4680BC704780B483B000AF786000BF1E
:1043FC000C37BD4680BC704780B483B000AF78608A
:10440C0000BF0C37BD4680BC704780B483B000AF92
:10441C00786000BF0C37BD4680BC704780B485B057
:10442C0000AF786039607B681B68FB607B68294A49
:10443C0093420BD07B68B3F1804F07D07B68264A40
:10444C00934203D07B68254A934208D1FB6823F042
:10445C007003FB603B685B68FA681343FB607B6826
:10446C001C4A93420BD07B68B3F1804F07D07B681A
:10447C00194A934203D07B68184A934208D1FB68CF
:10448C0023F44073FB603B68DB68FA681343FB6002
:10449C00FB6823F080023B685B691343FB607B681D
:1044AC00FA681A603B689A687B68DA623B681A683B
:1044BC007B689A627B68074A934203D13B681A690E
:1044CC007B681A637B6801225A6100BF1437BD46B2
:1044DC0080BC7047002C01400004004000080040E4
:1044EC0080B487B000AFF860B9607A603B60FB685D
:1044FC001B6A23F00102FB681A62FB689B697B61F3
:10450C00FB681B6A3B61FB681F4A93420BD0FB683C
:10451C00B3F1804F07D0FB681C4A934203D0FB6871
:10452C001B4A934201D1012300E00023002B08D049
:10453C007B6923F003037B617A697B6813437B619E
:10454C0003E07B6943F001037B617B6923F0F0039B
:10455C007B613B681B01DBB27A6913437B613B696E
:10456C0023F00A033B61BB6803F00A033A69134367
:10457C003B61FB687A699A61FB683A691A6200BF11
:10458C001C37BD4680BC7047002C01400004004025
:10459C000008004080B487B000AFF860B9607A6062
:1045AC003B60FB681B6A23F01002FB681A62FB6815
:1045BC009B697B61FB681B6A3B617B6923F44073DD
:1045CC007B617B681B027A6913437B617B6923F4F3
:1045DC0070437B613B681B039BB27A6913437B611D
:1045EC003B6923F0A0033B61BB681B0103F0A003F4
:1045FC003A6913433B61FB687A699A61FB683A69D3
:10460C001A6200BF1C37BD4680BC704780B487B0AF
:10461C0000AFF860B9607A603B60FB681B6A23F4FA
:10462C008072FB681A62FB68DB697B61FB681B6A42
:10463C003B617B6923F003037B617A697B681343DD
:10464C007B617B6923F0F0037B613B681B01DBB270
:10465C007A6913437B613B6923F400733B61BB684C
:10466C001B0203F400733A6913433B61FB687A69DC
:10467C00DA61FB683A691A6200BF1C37BD4680BC20
:10468C00704780B487B000AFF860B9607A603B6067
:10469C00FB681B6A23F48052FB681A62FB68DB69B7
:1046AC007B61FB681B6A3B617B6923F440737B6114
:1046BC007B681B027A6913437B617B6923F470432B
:1046CC007B613B681B039BB27A6913437B613B693B
:1046DC0023F400533B61BB681B0303F400533A699A
:1046EC0013433B61FB687A69DA61FB683A691A62C9
:1046FC0000BF1C37BD4680BC704780B487B000AF8C
:10470C00F860B9607A60BB6803F01F03012202FAFB
:10471C0003F37B61FB681A6A7B69DB431A40FB6815
:10472C001A62FB681A6ABB6803F01F03796801FA06
:10473C0003F31A43FB681A6200BF1C37BD4680BCEA
:10474C00704780B485B000AF786039607B6893F8AF
:10475C003C30012B01D1022332E07B68012283F82B
:10476C003C207B68022283F83D207B681B685B68D9
:10477C00FB607B681B689B68BB60FB6823F0700365
:10478C00FB603B681B68FA681343FB60BB6823F053
:10479C008003BB603B685B68BA681343BB607B6893
:1047AC001B68FA685A607B681B68BA689A607B68F9
:1047BC00012283F83D207B68002283F83C200023F3
:1047CC0018461437BD4680BC704780B483B000AF28
:1047DC00786000BF0C37BD4680BC704780B483B096
:1047EC0000AF786000BF0C37BD4680BC704780B509
:1047FC0082B000AF78607B68002B01D101233FE0D1
:10480C007B6893F83930DBB2002B06D17B68002231
:10481C0083F838207868FCF733FC7B68242283F813
:10482C0039207B681B68DA687B681B6822F40052AD
:10483C00DA60786800F028F87B681B681A697B6876
:10484C001B6822F490421A617B681B685A697B686A
:10485C001B6822F02A025A617B681B68DA687B6845
:10486C001B6842F40052DA607B680022DA637B68D2
:10487C00202283F839207B68202283F83A200023F9
:10488C0018460837BD4680BD80B584B000AF78604F
:10489C007B681B681B6923F440517B68DA687B6872
:1048AC001B680A431A617B689A687B681B691A4308
:1048BC007B685B691343FB607B681B68DB6823F4D4
:1048CC00B05323F00C037A681268F9680B43D36079
:1048DC007B681B685B6923F440717B689A697B6811
:1048EC001B680A435A617B681B68524A93424ED13B
:1048FC00FEF734FFB860BA6813469B0013449A0065
:10490C001A447B685B689B00B2FBF3F34A4AA2FB38
:10491C0003235B091901BA6813469B0013449A00E0
:10492C001A447B685B689B00B2FBF3F2424BA3FB1F
:10493C0002035B09642000FB03F3D31A1B0132331F
:10494C003D4AA2FB03235B0903F0F0031944BA6848
:10495C0013469B0013449A001A447B685B689B00C7
:10496C00B2FBF3F2344BA3FB02035B09642000FBA4
:10497C0003F3D31A1B0132332F4AA2FB03235B0927
:10498C0003F00F027B681B680A449A604DE0FEF747
:10499C00D1FEB860BA6813469B0013449A001A44BF
:1049AC007B685B689B00B2FBF3F3234AA2FB0323F7
:1049BC005B091901BA6813469B0013449A001A4408
:1049CC007B685B689B00B2FBF3F21B4BA3FB0203FF
:1049DC005B09642000FB03F3D31A1B013233164A24
:1049EC00A2FB03235B0903F0F0031944BA681346D6
:1049FC009B0013449A001A447B685B689B00B2FBD3
:104A0C00F3F20D4BA3FB02035B09642000FB03F3E1
:104A1C00D31A1B013233084AA2FB03235B0903F0B0
:104A2C000F027B681B680A449A6000BF1037BD46B2
:104A3C0080BD00BF003801401F85EB5184B080B4AD
:104A4C0083B000AF786007F1140080E80E000023FB
:104A5C0018460C37BD4680BC04B0704780B485B096
:104A6C0000AF78604FF43F43FB817B68B3F8403074
:104A7C009AB2FB8913439AB27B68A3F840200023B7
:104A8C0018461437BD4680BC704780B485B000AF63
:104A9C0078604FF43F43FB817B68B3F840309BB2A6
:104AAC001AB2B7F90E30DB431BB213401BB29AB2E9
:104ABC007B68A3F84020002318461437BD4680BC01
:104ACC00704780B483B000AF78600B46FB70002356
:104ADC0018460C37BD4680BC704784B080B582B098
:104AEC0000AF786007F1140080E80E007B680122AB
:104AFC00A3F840207B680022A3F840207B680022AA
:104B0C00A3F844207B680022A3F850207868FFF7B4
:104B1C00A5FF002318460837BD46BDE8804004B009
:104B2C007047000090B484B000AF78603960002307
:104B3C00FB737A683B681B789B0013441B889BB201
:104B4C0023F4EC4323F07003BB813B68DB78032B2D
:104B5C0019D801A252F823F0754B0008894B0008B4
:104B6C00994B00087F4B0008BB8943F40073BB8151
:104B7C000DE0BB8943F4C063BB8108E0BB8943F4FF
:104B8C008063BB8103E00123FB7300E000BF7A6804
:104B9C003B681B789B001A44BB8943F07F4343F46A
:104BAC007F0343F4004343F080039BB213807A6885
:104BBC003B681B789B0013441B889BB223F4E04397
:104BCC0023F070039AB23B681B789BB213439CB2E0
:104BDC007A683B681B789B001A448A4B23439BB230
:104BEC0013803B681B7B002B40F012813B685B7889
:104BFC00002B67D07C687B68B3F850309BB21C44A8
:104C0C003B681B781B01234403F580631C463B68FF
:104C1C00DB885B089BB25B009BB223807A683B68A5
:104C2C001B789B0013441B889CB2234603F0400363
:104C3C00002B14D07A683B681B789B0013441B88AC
:104C4C009BB223F4E04323F070039CB27A683B6878
:104C5C001B789B001A446C4B23439BB213803B681C
:104C6C00DB78012B18D07A683B681B789B001344C7
:104C7C001B889BB223F4E04323F040039CB284F0E6
:104C8C0020039CB27A683B681B789B001A445D4BEE
:104C9C0023439BB213802BE27A683B681B789B0002
:104CAC0013441B889BB223F4E04323F040039CB2D3
:104CBC007A683B681B789B001A44524B23439BB287
:104CCC00138015E27C687B68B3F850309BB21C44AF
:104CDC003B681B781B01234403F581631C463B682E
:104CEC00DB885B089BB25B009BB223807C687B6893
:104CFC00B3F850309BB21C443B681B781B01234417
:104D0C0003F20C431C463B681B69002B0ED1238815
:104D1C009BB223F4F8439BB2238023889BB26FEAA7
:104D2C0043436FEA53439BB223802DE03B681B69DE
:104D3C003E2B12D83B681B695B08BB603B681B6948
:104D4C0003F00103002B02D0BB680133BB60BB68CE
:104D5C009BB29B029BB2238016E03B681B695B09EC
:104D6C00BB603B681B6903F01F03002B02D1BB68BF
:104D7C00013BBB60BB689BB29B029BB26FEA434397
:104D8C006FEA53439BB223807A683B681B789B0085
:104D9C0013441B889CB2234603F48043002B14D08D
:104DAC007A683B681B789B0013441B889BB223F4E6
:104DBC00E04323F070039CB27A683B681B789B003D
:104DCC001A44124B23439BB213807A683B681B78BE
:104DDC009B0013441B889BB223F4804323F0700385
:104DEC009CB284F480539CB284F400539CB27A68D5
:104DFC003B681B789B001A44024B23439BB21380E5
:104E0C0076E100BF8080FFFFC080FFFF80C0FFFF06
:104E1C007A683B681B789B0013441B889BB223F475
:104E2C00E04323F070039CB27A683B681B789B00CC
:104E3C001A44964B23439BB213807C687B68B3F86F
:104E4C0050309BB21C443B681B781B01234403F578
:104E5C0080631C463B681B895B089BB25B009BB262
:104E6C0023807C687B68B3F850309BB21C443B6851
:104E7C001B781B01234403F581631C463B685B894B
:104E8C005B089BB25B009BB223803B685B78002B7A
:104E9C0040F088807A683B681B789B0013441B8821
:104EAC009CB2234603F48043002B14D07A683B68F1
:104EBC001B789B0013441B889BB223F4E04323F024
:104ECC0070039CB27A683B681B789B001A44704B49
:104EDC0023439BB213807A683B681B789B00134476
:104EEC001B889CB2234603F04003002B14D07A6835
:104EFC003B681B789B0013441B889BB223F4E04354
:104F0C0023F070039CB27A683B681B789B001A44B0
:104F1C00604B23439BB213807A683B681B789B00E1
:104F2C0013441B889BB223F4E04323F070039CB220
:104F3C007A683B681B789B001A44564B23439BB200
:104F4C0013807A683B681B789B0013441B889BB2C8
:104F5C0023F4804323F070039CB284F480539CB2FE
:104F6C0084F400539CB27A683B681B789B001A440B
:104F7C00494B23439BB213807A683B681B789B0098
:104F8C0013441B889BB223F4E04323F040039CB2F0
:104F9C007A683B681B789B001A443F4B23439BB2B7
:104FAC001380A5E07A683B681B789B0013441B8830
:104FBC009CB2234603F48043002B14D07A683B68E0
:104FCC001B789B0013441B889BB223F4E04323F013
:104FDC0070039CB27A683B681B789B001A442C4B7C
:104FEC0023439BB213807A683B681B789B00134465
:104FFC001B889CB2234603F04003002B14D07A6824
:10500C003B681B789B0013441B889BB223F4E04342
:10501C0023F070039CB27A683B681B789B001A449F
:10502C001C4B23439BB213807A683B681B789B0014
:10503C0013441B889BB223F4E04323F070039CB20F
:10504C007A683B681B789B001A44114B23439BB234
:10505C0013803B68DB78012B20D07A683B681B7887
:10506C009B0013441B889BB223F4E04323F04003C2
:10507C009CB284F020039CB27A683B681B789B003E
:10508C001A44054B23439BB213801CE08081FFFF25
:10509C0080C0FFFFC080FFFF8080FFFF7A683B6805
:1050AC001B789B0013441B889BB223F4E04323F032
:1050BC0040039CB27A683B681B789B001A440F4BE8
:1050CC0023439BB213807A683B681B789B00134484
:1050DC001B889BB223F4804323F070039CB27A6844
:1050EC003B681B789B001A44044B23439BB21380F0
:1050FC00FB7B18461037BD4690BC70478080FFFF85
:10510C0090B482B000AF786039603B681B7B002B99
:10511C0071D13B685B78002B36D07A683B681B7882
:10512C009B0013441B889CB2234603F04003002BC6
:10513C0014D07A683B681B789B0013441B889BB285
:10514C0023F4E04323F070039CB27A683B681B782D
:10515C009B001A446B4B23439BB213807A683B68C9
:10516C001B789B0013441B889BB223F4E04323F071
:10517C0040039CB27A683B681B789B001A44624BD4
:10518C0023439BB2138044E17A683B681B789B00F5
:10519C0013441B889CB2234603F48043002B14D089
:1051AC007A683B681B789B0013441B889BB223F4E2
:1051BC00E04323F070039CB27A683B681B789B0039
:1051CC001A44524B23439BB213807A683B681B787A
:1051DC009B0013441B889BB223F4804323F0700381
:1051EC009CB27A683B681B789B001A44464B23435D
:1051FC009BB213800DE13B685B78002B40F08880FC
:10520C007A683B681B789B0013441B889CB223462E
:10521C0003F48043002B14D07A683B681B789B0006
:10522C0013441B889BB223F4E04323F070039CB21D
:10523C007A683B681B789B001A44344B23439BB21F
:10524C0013807A683B681B789B0013441B889CB2C4
:10525C00234603F04003002B14D07A683B681B787C
:10526C009B0013441B889BB223F4E04323F0700390
:10527C009CB27A683B681B789B001A44214B2343F1
:10528C009BB213807A683B681B789B0013441B8885
:10529C009BB223F4E04323F070039CB27A683B6822
:1052AC001B789B001A44174B23439BB213807A68DC
:1052BC003B681B789B0013441B889BB223F48043F0
:1052CC0023F070039CB27A683B681B789B001A44ED
:1052DC000D4B23439BB213807A683B681B789B0071
:1052EC0013441B889BB223F4E04323F040039CB28D
:1052FC007A683B681B789B001A44034B23439BB290
:10530C00138086E0C080FFFF8080FFFF80C0FFFF1E
:10531C007A683B681B789B0013441B889CB223461D
:10532C0003F48043002B14D07A683B681B789B00F5
:10533C0013441B889BB223F4E04323F070039CB20C
:10534C007A683B681B789B001A44354B23439BB20D
:10535C0013807A683B681B789B0013441B889CB2B3
:10536C00234603F04003002B14D07A683B681B786B
:10537C009B0013441B889BB223F4E04323F070037F
:10538C009CB27A683B681B789B001A44254B2343DC
:10539C009BB213807A683B681B789B0013441B8874
:1053AC009BB223F4E04323F070039CB27A683B6811
:1053BC001B789B001A441A4B23439BB213807A68C8
:1053CC003B681B789B0013441B889BB223F4E0437F
:1053DC0023F040039CB27A683B681B789B001A440C
:1053EC00114B23439BB213807A683B681B789B005C
:1053FC0013441B889BB223F4804323F070039CB2AC
:10540C007A683B681B789B001A44074B23439BB27A
:10541C001380002318460837BD4690BC704700BF68
:10542C0080C0FFFFC080FFFF8080FFFF90B58DB074
:10543C0000AF786039603B685B78012B40F060818D
:10544C003B689A693B681B699A4209D93B681B699E
:10545C00BB623B689A69BB6AD21A3B689A6105E0E9
:10546C003B689B69BB623B6800229A613B681B7B73
:10547C00002B19D13B6859693B68DA88BB6A9BB22F
:10548C00786800F0A2FB7C687B68B3F850309BB264
:10549C001C443B681B781B01234403F204431C4649
:1054AC00BB6A9BB223800FE17A683B681B789B0038
:1054BC0013441B889BB203F04003002B65D07C681F
:1054CC003B685B78002B48D17C687B68B3F8503024
:1054DC009BB21C443B681B781B01234403F20C4316
:1054EC001C46BB6A002B0ED123889BB223F4F843D5
:1054FC009BB2238023889BB26FEA43436FEA5343EA
:10550C009BB223803DE0BB6A3E2B10D8BB6A5B0884
:10551C007B62BB6A03F00103002B02D07B6A013370
:10552C007B627B6A9BB29B029BB2238029E0BB6AA5
:10553C005B097B62BB6A03F01F03002B02D17B6A01
:10554C00013B7B627B6A9BB29B029BB26FEA43433B
:10555C006FEA53439BB2238013E03B685B78012BCB
:10556C000FD17B68B3F850309BB21C443B681B785E
:10557C001B01234403F20C43FB60BB6A9AB2FB6829
:10558C001A803B685B89FB8563E03B685B78002B8A
:10559C0048D17C687B68B3F850309BB21C443B68A4
:1055AC001B781B01234403F204431C46BB6A002BEB
:1055BC000ED123889BB223F4F8439BB2238023881B
:1055CC009BB26FEA43436FEA53439BB223803DE0A7
:1055DC00BB6A3E2B10D8BB6A5B083B62BB6A03F00C
:1055EC000103002B02D03B6A01333B623B6A9BB246
:1055FC009B029BB2238029E0BB6A5B093B62BB6ABE
:10560C0003F01F03002B02D13B6A013B3B623B6A58
:10561C009BB29B029BB26FEA43436FEA53439BB22C
:10562C00238013E03B685B78012B0FD17C687B688F
:10563C00B3F850309BB21C443B681B781B012344CD
:10564C0003F204431C46BB6A9BB223803B681B8954
:10565C00FB853B685969BB6A9BB2FA8D786800F090
:10566C00B4FA3B685B78002B15D17A683B681B78E1
:10567C009B0013441B889BB223F4E04323F070037C
:10568C009CB27A683B681B789B001A449A4B234364
:10569C009BB2138018E03B685B78012B14D17A68BD
:1056AC003B681B789B0013441B889BB223F4E0439C
:1056BC0023F070039CB27A683B681B789B001A44F9
:1056CC008E4B23439BB213807A683B681B789B00FC
:1056DC0013441B889BB223F4E04323F040039CB299
:1056EC0084F010039CB284F020039CB27A683B686F
:1056FC001B789B001A44824B23439BB2138046E1D8
:10570C003B689A693B681B699A4209D93B681B69DB
:10571C00BB623B689A69BB6AD21A3B689A6105E026
:10572C003B689B69BB623B6800229A613B681B7BB0
:10573C00002B48D17C687B68B3F850309BB21C447A
:10574C003B681B781B01234403F20C431C46BB6AC9
:10575C00002B0ED123889BB223F4F8439BB22380F9
:10576C0023889BB26FEA43436FEA53439BB2238077
:10577C00F2E0BB6A3E2B10D8BB6A5B08FB61BB6ACC
:10578C0003F00103002B02D0FB690133FB61FB69C1
:10579C009BB29B029BB22380DEE0BB6A5B09FB6180
:1057AC00BB6A03F01F03002B02D1FB69013BFB61B9
:1057BC00FB699BB29B029BB26FEA43436FEA534374
:1057CC009BB22380C8E03B685B78002B48D17C6897
:1057DC007B68B3F850309BB21C443B681B781B01B0
:1057EC00234403F204431C46BB6A002B0ED12388CE
:1057FC009BB223F4F8439BB2238023889BB26FEABD
:10580C0043436FEA53439BB223803DE0BB6A3E2B7C
:10581C0010D8BB6A5B08BB61BB6A03F00103002BA9
:10582C0002D0BB690133BB61BB699BB29B029BB2CB
:10583C00238029E0BB6A5B09BB61BB6A03F01F03D1
:10584C00002B02D1BB69013BBB61BB699BB29B02C4
:10585C009BB26FEA43436FEA53439BB2238013E03E
:10586C003B685B78012B0FD17C687B68B3F85030B8
:10587C009BB21C443B681B781B01234403F204437A
:10588C001C46BB6A9BB223807C683B685B78002B10
:10589C004ED17C687B68B3F850309BB21C443B689B
:1058AC001B781B01234403F20C431C46BB6A002BE0
:1058BC000ED123889BB223F4F8439BB22380238818
:1058CC009BB26FEA43436FEA53439BB2238043E09E
:1058DC00BB6A3E2B16D8BB6A5B087B61BB6A03F0C4
:1058EC000103002B02D07B6901337B617B699BB286
:1058FC009B029BB223802FE0C080FFFF80C0FFFF84
:10590C008080FFFFBB6A5B097B61BB6A03F01F03EE
:10591C00002B02D17B69013B7B617B699BB29B02B3
:10592C009BB26FEA43436FEA53439BB2238013E06D
:10593C003B685B78012B0FD17B68B3F850309BB27E
:10594C001C443B681B781B01234403F20C433B6152
:10595C00BB6A9AB23B691A807A683B681B789B00D9
:10596C0013441B889BB223F4804323F070039CB236
:10597C0084F480539CB284F400539CB27A683B68E4
:10598C001B789B001A44044B23439BB213800023C7
:10599C0018463437BD4690BD8080FFFF90B482B06E
:1059AC0000AF786039603B685B78002B18D07A6860
:1059BC003B681B789B0013441B889BB223F4E04389
:1059CC0023F040039CB284F010039CB27A683B68CD
:1059DC001B789B001A44114B23439BB2138017E096
:1059EC007A683B681B789B0013441B889BB223F49A
:1059FC00804323F070039CB284F480539CB27A6889
:105A0C003B681B789B001A44044B23439BB21380C6
:105A1C00002318460837BD4690BC70478080FFFFB6
:105A2C0090B482B000AF786039603B681B7B002B70
:105A3C007DD13B685B78002B3DD07A683B681B7846
:105A4C009B0013441B889CB2234603F04003002B9D
:105A5C0014D07A683B681B789B0013441B889BB25C
:105A6C0023F4E04323F070039CB27A683B681B7804
:105A7C009B001A44314B23439BB213803B68DB7869
:105A8C00012B54D07A683B681B789B0013441B880D
:105A9C009BB223F4E04323F040039CB284F0200338
:105AAC009CB27A683B681B789B001A44244B2343B6
:105ABC009BB213803BE07A683B681B789B001344D5
:105ACC001B889CB2234603F48043002B14D07A68C5
